:100000000C9462000C948A000C948A000C948A0070
:100010000C948A000C948A000C948A000C948A0038
:100020000C948A000C948A000C948A000C948A0028
:100030000C948A000C948A000C948A000C948A0018
:100040000C9473030C948A000C94E3030C94BD038A
:100050000C948A000C948A000C948A000C948A00F8
:100060000C948A000C948A000000000024002700F1
:100070002A000000000023002600290000000000E4
:10008000250028002B0004040404040404040202D4
:100090000202020203030303030301020408102007
:1000A0004080010204081020010204081020000012
:1000B0000008000201000003040700000000000027
:1000C0000000270611241FBECFEFD8E0DEBFCDBF52
:1000D00012E0A0E0B1E0E4E7F1E102C005900D928A
:1000E000A634B107D9F722E0A6E4B2E001C01D9220
:1000F000AF3EB207E1F710E0C2E6D0E004C02197BE
:10010000FE010E94B208C136D107C9F70E9415044A
:100110000C94B8080C940000833081F028F48130EE
:1001200099F08230A9F008958730A9F08830C9F09D
:100130008430B1F4809180008F7D03C08091800075
:100140008F7780938000089584B58F7784BD08955C
:1001500084B58F7DFBCF8091B0008F778093B00006
:1001600008958091B0008F7DF9CF1F93CF93DF93D7
:10017000E1EBF0E09491EDE9F0E0D491E9E8F0E012
:10018000C491CC23B9F0182F992319F0892F0E941C
:100190008C00EC2FF0E0EE0FFF1FE458FF4FA5910D
:1001A000B4918FB7F894EC91111108C0D095DE236B
:1001B000DC938FBFDF91CF911F910895DE2BF8CF95
:1001C000AF92BF92CF92DF92EF92FF920F931F9365
:1001D000CF93DF936C017B018B01040F151FEB01A3
:1001E0005E01AE18BF08C017D10759F06991D6015A
:1001F000ED91FC910190F081E02DC6010995892BCC
:1002000079F7C501DF91CF911F910F91FF90EF908A
:10021000DF90CF90BF90AF900895FC01538D448D37
:10022000252F30E0842F90E0821B930B541710F0A1
:10023000CF96089501970895FC01918D828D9817AE
:1002400061F0A28DAE0FBF2FB11D5D968C91928D86
:100250009F5F9F73928F90E008958FEF9FEF0895B7
:10026000FC01918D828D981731F0828DE80FF11D80
:10027000858D90E008958FEF9FEF0895FC01918D9B
:10028000228D892F90E0805C9F4F821B91098F7394
:100290009927089582E592E00E943E0121E0892B92
:1002A00009F420E0822F089580E090E0892B29F066
:1002B0000E944A0181110C9400000895FC01A48D54
:1002C000A80FB92FB11DA35ABF4F2C91848D90E078
:1002D00001968F739927848FA689B7892C93A0895B
:1002E000B1898C91837080648C93938D848D9813E5
:1002F00006C00288F389E02D80818F7D8083089578
:10030000EF92FF920F931F93CF93DF93EC0181E065
:10031000888F9B8D8C8D98131AC0E889F98980810C
:1003200085FF15C09FB7F894EE89FF896083E8893F
:10033000F98980818370806480839FBF81E090E031
:10034000DF91CF911F910F91FF90EF900895F62EBE
:100350000B8D10E00F5F1F4F0F731127E02E8C8D58
:100360008E110CC00FB607FCFACFE889F98980819D
:1003700085FFF5CFCE010E945E01F1CFEB8DEC0F32
:10038000FD2FF11DE35AFF4FF0829FB7F8940B8FBA
:10039000EA89FB8980818062CFCFCF93DF93EC0124
:1003A000888D8823B9F0AA89BB89E889F9898C915D
:1003B00085FD03C0808186FD0DC00FB607FCF7CF19
:1003C0008C9185FFF2CF808185FFEDCFCE010E9419
:1003D0005E01E9CFDF91CF910895FC0101900020EB
:1003E000E9F73197AF01481B590BBC0182E592E058
:1003F0000C94E0008F929F92AF92BF920F931F9345
:10040000CF93DF93CDB7DEB7A1970FB6F894DEBFD9
:100410000FBECDBF19A2423008F44AE08E010F5D35
:100420001F4F842E912CB12CA12CA50194010E9468
:100430009008E62FB901CA01EA30F4F4E05DD80172
:10044000EE938D01232B242B252B79F790E080E070
:10045000109719F0CD010E94ED01A1960FB6F89406
:10046000DEBF0FBECDBFDF91CF911F910F91BF9027
:10047000AF909F908F900895E95CE1CFCF92DF928B
:10048000EF92FF92CF93DF936B017C016DE282E5E7
:1004900092E00E948001EC0166277727CB016C195E
:1004A0007D098E099F094AE00E94FA018C0F9D1F69
:1004B000DF91CF91FF90EF90DF90CF9008950C9453
:1004C000ED01CF93DF930E94ED01EC0184E191E017
:1004D0000E94ED018C0F9D1FDF91CF910895BC010B
:1004E000990F880B990B97FD0C943E024AE00C94EF
:1004F000FA014F925F926F927F928F929F92AF928A
:10050000BF92CF92DF92EF92FF920F931F93CF9300
:100510006B017C01742EAC019B010E948B08882327
:1005200099F087E191E0CF911F910F91FF90EF90AB
:10053000DF90CF90BF90AF909F908F907F906F9003
:100540005F904F900C94ED0146015701E894B7F885
:100550002FEF3FEF4FE75FE7C501B4010E948B0823
:1005600081110DC02FEF3FEF4FE75FE7C501B401E9
:100570000E94C10618161CF48BE191E0D4CF2FEF36
:100580003FEF4FE75FE4C701B6010E941908181654
:100590001CF48FE191E0C7CF2FEF3FEF4FE75FEC07
:1005A000C701B6010E94C10687FDF3CF20E030E00D
:1005B000A901C701B6010E94C10610E000E087FF53
:1005C0000AC06DE282E592E00E9480018C01F7FA98
:1005D000F094F7F8F094C0E060E070E080E09FE312
:1005E0007C1641F020E030E040E251E40E94C60673
:1005F000CF5FF6CFA70196010E9455062B013C0163
:100600000E9438074B015C014AE00E94FA017C011C
:10061000E00EF11ECC23C1F1C501B4010E946707B1
:100620009B01AC01C301B2010E9454064B015C0165
:100630006EE282E592E00E948001E80EF91EC15050
:1006400018F120E030E040E251E4C501B4010E941D
:100650001E082B013C010E9438074B01B12CA12C34
:100660004AE0C501B4010E94FA01E80EF91EC50175
:10067000B4010E9467079B01AC01C301B2010E9453
:1006800054064B015C01DBCFC701CF911F910F9145
:10069000FF90EF90DF90CF90BF90AF909F908F90A2
:1006A0007F906F905F904F9008950F931F93CF931B
:1006B000DF938C01C9E0D0E0B8010C2E02C0759523
:1006C00067950A94E2F761707727072E000C880B74
:1006D000990B4AE00E94FA01219770F7DF91CF91C0
:1006E0001F910F9108951F920F920FB60F92112430
:1006F0002F933F938F939F93AF93BF9380914E021D
:1007000090914F02A0915002B091510230914D0250
:1007100023E0230F2D3758F50196A11DB11D20931D
:100720004D0280934E0290934F02A0935002B093DB
:1007300051028091490290914A02A0914B02B091DE
:100740004C020196A11DB11D8093490290934A026B
:10075000A0934B02B0934C02BF91AF919F918F91A8
:100760003F912F910F900FBE0F901F90189526E884
:10077000230F0296A11DB11DD2CF1F920F920FB66B
:100780000F9211242F933F934F935F936F937F9317
:100790008F939F93AF93BF93EF93FF9382E592E084
:1007A0000E945E01FF91EF91BF91AF919F918F9158
:1007B0007F916F915F914F913F912F910F900FBE5D
:1007C0000F901F9018951F920F920FB60F92112441
:1007D0002F938F939F93EF93FF93E0916202F09199
:1007E00063028081E0916802F091690282FD1BC082
:1007F000908180916B028F5F8F7320916C028217C2
:1008000041F0E0916B02F0E0EE5AFD4F958F80933E
:100810006B02FF91EF919F918F912F910F900FBEDF
:100820000F901F9018958081F4CF789484B58260E2
:1008300084BD84B5816084BD85B5826085BD85B584
:10084000816085BD80916E00816080936E00109202
:10085000810080918100826080938100809181007D
:10086000816080938100809180008160809380000E
:100870008091B10084608093B1008091B00081606C
:100880008093B00080917A00846080937A00809198
:100890007A00826080937A0080917A0081608093F0
:1008A0007A0080917A00806880937A001092C1006B
:1008B000E0916202F091630282E08083E0915E0247
:1008C000F0915F021082E0916002F09161028FEC82
:1008D000808310926A02E0916602F091670286E0DE
:1008E0008083E0916402F091650280818061808361
:1008F000E0916402F0916502808188608083E091DC
:100900006402F0916502808180688083E0916402D6
:10091000F091650280818F7D8083ECE9F0E0249185
:10092000A8E82A2EA0E03A2EF10184918823C1F094
:1009300090E0880F991FFC01E859FF4FA591B491F1
:10094000FC01E458FF4FC591D4913FB7F8949C91B6
:10095000822F809598239C939881892388833FBF19
:10096000EDE9F0E02491E9E8F0E08491882399F042
:1009700090E0880F991FFC01E859FF4FA591B491B1
:10098000FC01E458FF4F859194918FB7F894EC9156
:10099000E22BEC938FBF80E00E94B50083E291E0F0
:1009A0000E946102812C54E0952E01E010E069E084
:1009B000E62EF12CC12C72E0D72E40E0A42E40E0B0
:1009C000B42EC0914702D09148021C161D06F4F1C6
:1009D00080E00E94B50094012C1B3D0BFAE0F29FD1
:1009E000C001F39F900D11248230910508F047C09B
:1009F00082E592E00E943E01892B09F41CC182E548
:100A000092E00E941C01823609F041C081E080938F
:100A10004602F0920101E0920001D0924802C09299
:100A200047028DE491E00E9461028AE691E00E9413
:100A30005F0280914702909148020E94550384E131
:100A400091E00E94ED0184E891E0C8C081E00E943D
:100A5000B5002AE02C9FC0012D9F900D11248230FB
:100A600091053CF0880F991F880F991F05970197F2
:100A7000F1F7C11544E0D4070CF0BACFA9CF880F25
:100A8000991F880F991F05970197F1F7B1CF8E36FF
:100A900009F0A6C080914602882309F4A1C0E0EBCA
:100AA000F0E08491ECE9F0E0D491F101C491CC2321
:100AB00009F4A1C081110E948C00EC2FF0E0EE0F30
:100AC000FF1FEE58FF4FA591B4918C91D82391E070
:100AD00080E009F490E0C92FD82F80E492E00E94D2
:100AE0005F0280910001909101010E946F0285EAEE
:100AF00091E0CD2BB1F498010090000102C0220FCB
:100B0000331F0A94E2F72095309580914702909127
:100B1000480282239323909348028093470280EAFD
:100B200091E00E945F026091470270914802072E97
:100B3000000C880B990B0E94690720E030E040EA26
:100B40005BE30E941E082B013C018AEA91E00E94AF
:100B50005F0280914702909148020E94550383EB07
:100B600091E00E945F0242E0C301B2010E9479025B
:100B700082EC91E00E94610280910001909101015C
:100B80000197909301018093000197FF37C0109265
:100B9000460285EC91E00E9461028FED91E00E9497
:100BA00061028EE791E00E945F028091470290917E
:100BB00048020E9455038CEE91E00E945F0242E0E1
:100BC000C301B2010E94790282EC91E00E946102AD
:100BD00086EF91E00E94610281E192E00E94610251
:100BE00082E592E00E943E01892B29F182E592E0A4
:100BF0000E941C01F5CFD0E0C0E06FCF980102C089
:100C0000220F331F8A95E2F78091470290914802A4
:100C1000822B932B909348028093470285E392E0C6
:100C20000E945F0280910001909101010E946F0279
:100C30008AE791E0FCCEA114B10409F4C2CE0E946F
:100C40004A01882309F4BDCE0E940000B6CEE2E539
:100C5000F2E01382128288EE93E0A0E0B0E0848399
:100C60009583A683B78386E091E09183808385ECAA
:100C700090E09587848784EC90E09787868780EC66
:100C800090E0918B808B81EC90E0938B828B82EC57
:100C900090E0958B848B86EC90E0978B868B118E01
:100CA000128E138E148E08955058BB27AA270E94C7
:100CB0006C060C94DF070E94D10738F00E94D80719
:100CC00020F039F49F3F19F426F40C94CE070EF46B
:100CD000E095E7FB0C94C807E92F0E94F00758F352
:100CE000BA17620773078407950720F079F4A6F511
:100CF0000C9412080EF4E0950B2EBA2FA02D0B01C8
:100D0000B90190010C01CA01A0011124FF27591B50
:100D100099F0593F50F4503E68F11A16F040A22F56
:100D2000232F342F4427585FF3CF469537952795C7
:100D3000A795F0405395C9F77EF41F16BA0B620BC6
:100D4000730B840BBAF09150A1F0FF0FBB1F661F0D
:100D5000771F881FC2F70EC0BA0F621F731F841F50
:100D600048F4879577956795B795F7959E3F08F076
:100D7000B0CF9395880F08F09927EE0F9795879538
:100D800008950E94A40708F481E008950E94DA06FD
:100D90000C94DF070E94D80758F00E94D10740F05A
:100DA00029F45F3F29F00C94C80751110C941308E3
:100DB0000C94CE070E94F00768F39923B1F35523F2
:100DC00091F3951B550BBB27AA276217730784075E
:100DD00038F09F5F5F4F220F331F441FAA1FA9F3F4
:100DE00035D00E2E3AF0E0E832D091505040E695E2
:100DF000001CCAF72BD0FE2F29D0660F771F881F43
:100E0000BB1F261737074807AB07B0E809F0BB0B35
:100E1000802DBF01FF2793585F4F3AF09E3F510549
:100E200078F00C94C8070C9413085F3FE4F3983EE5
:100E3000D4F3869577956795B795F7959F5FC9F732
:100E4000880F911D9695879597F90895E1E0660FB3
:100E5000771F881FBB1F621773078407BA0720F02C
:100E6000621B730B840BBA0BEE1F88F7E095089595
:100E70000E94F80788F09F5798F0B92F9927B7512B
:100E8000B0F0E1F0660F771F881F991F1AF0BA952E
:100E9000C9F714C0B13091F00E941208B1E0089572
:100EA0000C941208672F782F8827B85F39F0B93F64
:100EB000CCF3869577956795B395D9F73EF49095E1
:100EC0008095709561957F4F8F4F9F4F0895E8945F
:100ED00009C097FB3EF490958095709561957F4F82
:100EE0008F4F9F4F9923A9F0F92F96E9BB27939530
:100EF000F695879577956795B795F111F8CFFAF440
:100F0000BB0F11F460FF1BC06F5F7F4F8F4F9F4F70
:100F100016C0882311F096E911C0772321F09EE8CE
:100F2000872F762F05C0662371F096E8862F70E034
:100F300060E02AF09A95660F771F881FDAF7880F0E
:100F40009695879597F90895990F0008550FAA0B64
:100F5000E0E8FEEF16161706E807F907C0F01216CC
:100F60001306E407F50798F0621B730B840B950BCF
:100F700039F40A2661F0232B242B252B21F4089524
:100F80000A2609F4A140A6958FEF811D811D0895C1
:100F900097F99F6780E870E060E008959FEF80EC2C
:100FA000089500240A9416161706180609060895CF
:100FB00000240A9412161306140605060895092E35
:100FC0000394000C11F4882352F0BB0F40F4BF2BA4
:100FD00011F460FF04C06F5F7F4F8F4F9F4F0895E4
:100FE00057FD9058440F551F59F05F3F71F04795DA
:100FF000880F97FB991F61F09F3F79F087950895BF
:10100000121613061406551FF2CF4695F1DF08C0DD
:10101000161617061806991FF1CF869571056105FA
:1010200008940895E894BB2766277727CB0197F9A2
:1010300008950E94A40708F48FEF08950E943108D4
:101040000C94DF070E94D10738F00E94D80720F0E7
:10105000952311F00C94C8070C94CE0711240C941E
:1010600013080E94F00770F3959FC1F3950F50E0AD
:10107000551F629FF001729FBB27F00DB11D639F4A
:10108000AA27F00DB11DAA1F649F6627B00DA11DF0
:10109000661F829F2227B00DA11D621F739FB00D96
:1010A000A11D621F839FA00D611D221F749F332706
:1010B000A00D611D231F849F600D211D822F762F9F
:1010C0006A2F11249F5750409AF0F1F088234AF07C
:1010D000EE0FFF1FBB1F661F771F881F91505040E8
:1010E000A9F79E3F510580F00C94C8070C94130893
:1010F0005F3FE4F3983ED4F3869577956795B7956F
:10110000F795E7959F5FC1F7FE2B880F911D969588
:10111000879597F908950E94A407880B990B089565
:10112000A1E21A2EAA1BBB1BFD010DC0AA1FBB1FEB
:10113000EE1FFF1FA217B307E407F50720F0A21B5D
:10114000B30BE40BF50B661F771F881F991F1A94CA
:1011500069F760957095809590959B01AC01BD01F4
:10116000CF010895EE0FFF1F0590F491E02D099433
:04117000F894FFCF21
:101174000900000000008001E0000D01CD013E01E6
:101184001C0130010D0A006E616E00696E66006F0D
:1011940076660053797374656D20526561647920B5
:1011A4002831302D426974292E2053656E6420271E
:1011B400622720746F2073746172742E000A2D2DBF
:1011C4002D205354415254494E4720434F4E5645C7
:1011D4005253494F4E202D2D2D002D3E2054657322
:1011E40074696E67204269742039202D3E2052654F
:1011F400673A20002020205B53656E6420276E2709
:1012040020666F72206E65787420737465705D005B
:10121400203A203000203A203100207C205265679B
:101224003A2000207C204573742E20566F6C743A4B
:1012340020002056002D2D2D2D2D2D2D2D2D2D2D25
:101244002D2D2D2D2D2D2D2D2D2D2D2D2D2D0046DE
:10125400494E414C20524553554C5400207C205655
:101264006F6C743A20002D2D2D2D2D2D2D2D2D2D0F
:101274002D2D2D2D2D2D2D2D2D2D2D2D2D2D2D0ABD
:101284000053656E642027622720746F2073746195
:1012940072742061206E657720636F6E7665727359
:1012A400696F6E2E002D3E2054657374696E67203D
:0612B400426974200000F5
:00000001FF
