:100000000C9462000C948A000C948A000C948A0070
:100010000C948A000C948A000C948A000C948A0038
:100020000C948A000C948A000C948A000C948A0028
:100030000C948A000C948A000C948A000C948A0018
:100040000C9473030C948A000C94E3030C94BD038A
:100050000C948A000C948A000C948A000C948A00F8
:100060000C948A000C948A000000000024002700F1
:100070002A000000000023002600290000000000E4
:10008000250028002B0004040404040404040202D4
:100090000202020203030303030301020408102007
:1000A0004080010204081020010204081020000012
:1000B0000008000201000003040700000000000027
:1000C00000002A0611241FBECFEFD8E0DEBFCDBF4F
:1000D00012E0A0E0B1E0EAE7F1E102C005900D9284
:1000E000A434B107D9F722E0A4E4B2E001C01D9224
:1000F000AD3EB207E1F710E0C2E6D0E004C02197C0
:10010000FE010E94B508C136D107C9F70E94150447
:100110000C94BB080C940000833081F028F48130EB
:1001200099F08230A9F008958730A9F08830C9F09D
:100130008430B1F4809180008F7D03C08091800075
:100140008F7780938000089584B58F7784BD08955C
:1001500084B58F7DFBCF8091B0008F778093B00006
:1001600008958091B0008F7DF9CF1F93CF93DF93D7
:10017000E1EBF0E09491EDE9F0E0D491E9E8F0E012
:10018000C491CC23B9F0182F992319F0892F0E941C
:100190008C00EC2FF0E0EE0FFF1FE458FF4FA5910D
:1001A000B4918FB7F894EC91111108C0D095DE236B
:1001B000DC938FBFDF91CF911F910895DE2BF8CF95
:1001C000AF92BF92CF92DF92EF92FF920F931F9365
:1001D000CF93DF936C017B018B01040F151FEB01A3
:1001E0005E01AE18BF08C017D10759F06991D6015A
:1001F000ED91FC910190F081E02DC6010995892BCC
:1002000079F7C501DF91CF911F910F91FF90EF908A
:10021000DF90CF90BF90AF900895FC01538D448D37
:10022000252F30E0842F90E0821B930B541710F0A1
:10023000CF96089501970895FC01918D828D9817AE
:1002400061F0A28DAE0FBF2FB11D5D968C91928D86
:100250009F5F9F73928F90E008958FEF9FEF0895B7
:10026000FC01918D828D981731F0828DE80FF11D80
:10027000858D90E008958FEF9FEF0895FC01918D9B
:10028000228D892F90E0805C9F4F821B91098F7394
:100290009927089580E592E00E943E0121E0892B94
:1002A00009F420E0822F089580E090E0892B29F066
:1002B0000E944A0181110C9400000895FC01A48D54
:1002C000A80FB92FB11DA35ABF4F2C91848D90E078
:1002D00001968F739927848FA689B7892C93A0895B
:1002E000B1898C91837080648C93938D848D9813E5
:1002F00006C00288F389E02D80818F7D8083089578
:10030000EF92FF920F931F93CF93DF93EC0181E065
:10031000888F9B8D8C8D98131AC0E889F98980810C
:1003200085FF15C09FB7F894EE89FF896083E8893F
:10033000F98980818370806480839FBF81E090E031
:10034000DF91CF911F910F91FF90EF900895F62EBE
:100350000B8D10E00F5F1F4F0F731127E02E8C8D58
:100360008E110CC00FB607FCFACFE889F98980819D
:1003700085FFF5CFCE010E945E01F1CFEB8DEC0F32
:10038000FD2FF11DE35AFF4FF0829FB7F8940B8FBA
:10039000EA89FB8980818062CFCFCF93DF93EC0124
:1003A000888D8823B9F0AA89BB89E889F9898C915D
:1003B00085FD03C0808186FD0DC00FB607FCF7CF19
:1003C0008C9185FFF2CF808185FFEDCFCE010E9419
:1003D0005E01E9CFDF91CF910895FC0101900020EB
:1003E000E9F73197AF01481B590BBC0180E592E05A
:1003F0000C94E0008F929F92AF92BF920F931F9345
:10040000CF93DF93CDB7DEB7A1970FB6F894DEBFD9
:100410000FBECDBF19A2423008F44AE08E010F5D35
:100420001F4F842E912CB12CA12CA50194010E9468
:100430009308E62FB901CA01EA30F4F4E05DD8016F
:10044000EE938D01232B242B252B79F790E080E070
:10045000109719F0CD010E94ED01A1960FB6F89406
:10046000DEBF0FBECDBFDF91CF911F910F91BF9027
:10047000AF909F908F900895E95CE1CFCF92DF928B
:10048000EF92FF92CF93DF936B017C016DE280E5E9
:1004900092E00E948001EC0166277727CB016C195E
:1004A0007D098E099F094AE00E94FA018C0F9D1F69
:1004B000DF91CF91FF90EF90DF90CF9008950C9453
:1004C000ED01CF93DF930E94ED01EC0184E191E017
:1004D0000E94ED018C0F9D1FDF91CF910895BC010B
:1004E000990F880B990B97FD0C943E024AE00C94EF
:1004F000FA014F925F926F927F928F929F92AF928A
:10050000BF92CF92DF92EF92FF920F931F93CF9300
:100510006B017C01742EAC019B010E948E08882324
:1005200099F087E191E0CF911F910F91FF90EF90AB
:10053000DF90CF90BF90AF909F908F907F906F9003
:100540005F904F900C94ED0146015701E894B7F885
:100550002FEF3FEF4FE75FE7C501B4010E948E0820
:1005600081110DC02FEF3FEF4FE75FE7C501B401E9
:100570000E94C40618161CF48BE191E0D4CF2FEF33
:100580003FEF4FE75FE4C701B6010E941C08181651
:100590001CF48FE191E0C7CF2FEF3FEF4FE75FEC07
:1005A000C701B6010E94C40687FDF3CF20E030E00A
:1005B000A901C701B6010E94C40610E000E087FF50
:1005C0000AC06DE280E592E00E9480018C01F7FA9A
:1005D000F094F7F8F094C0E060E070E080E09FE312
:1005E0007C1641F020E030E040E251E40E94C90670
:1005F000CF5FF6CFA70196010E9458062B013C0160
:100600000E943B074B015C014AE00E94FA017C0119
:10061000E00EF11ECC23C1F1C501B4010E946A07AE
:100620009B01AC01C301B2010E9457064B015C0162
:100630006EE280E592E00E948001E80EF91EC15052
:1006400018F120E030E040E251E4C501B4010E941D
:1006500021082B013C010E943B074B01B12CA12C2E
:100660004AE0C501B4010E94FA01E80EF91EC50175
:10067000B4010E946A079B01AC01C301B2010E9450
:1006800057064B015C01DBCFC701CF911F910F9142
:10069000FF90EF90DF90CF90BF90AF909F908F90A2
:1006A0007F906F905F904F9008950F931F93CF931B
:1006B000DF938C01C3E0D0E0B8010C2E02C0759529
:1006C00067950A94E2F761707727072E000C880B74
:1006D000990B4AE00E94FA01219770F7DF91CF91C0
:1006E0001F910F9108951F920F920FB60F92112430
:1006F0002F933F938F939F93AF93BF9380914C021F
:1007000090914D02A0914E02B0914F0230914B0258
:1007100023E0230F2D3758F50196A11DB11D20931D
:100720004B0280934C0290934D02A0934E02B093E3
:100730004F028091470290914802A0914902B091E6
:100740004A020196A11DB11D809347029093480271
:10075000A0934902B0934A02BF91AF919F918F91AC
:100760003F912F910F900FBE0F901F90189526E884
:10077000230F0296A11DB11DD2CF1F920F920FB66B
:100780000F9211242F933F934F935F936F937F9317
:100790008F939F93AF93BF93EF93FF9380E592E086
:1007A0000E945E01FF91EF91BF91AF919F918F9158
:1007B0007F916F915F914F913F912F910F900FBE5D
:1007C0000F901F9018951F920F920FB60F92112441
:1007D0002F938F939F93EF93FF93E0916002F0919B
:1007E00061028081E0916602F091670282FD1BC088
:1007F0009081809169028F5F8F7320916A028217C6
:1008000041F0E0916902F0E0E05BFD4F958F80934D
:100810006902FF91EF919F918F912F910F900FBEE1
:100820000F901F9018958081F4CF789484B58260E2
:1008300084BD84B5816084BD85B5826085BD85B584
:10084000816085BD80916E00816080936E00109202
:10085000810080918100826080938100809181007D
:10086000816080938100809180008160809380000E
:100870008091B10084608093B1008091B00081606C
:100880008093B00080917A00846080937A00809198
:100890007A00826080937A0080917A0081608093F0
:1008A0007A0080917A00806880937A001092C1006B
:1008B000E0916002F091610282E08083E0915C024D
:1008C000F0915D021082E0915E02F0915F028FEC88
:1008D000808310926802E0916402F091650286E0E4
:1008E0008083E0916202F091630280818061808365
:1008F000E0916202F0916302808188608083E091E0
:100900006202F0916302808180688083E0916202DC
:10091000F091630280818F7D8083ECE9F0E0249187
:10092000E8E8F0E084918823C1F090E0880F991FF7
:10093000FC01E859FF4FA591B491FC01E458FF4F29
:10094000C591D4913FB7F8949C91822F80959823BC
:100950009C939881892388833FBFEDE9F0E024913F
:10096000E9E8F0E08491882399F090E0880F991FDE
:10097000FC01E859FF4FA591B491FC01E458FF4FE9
:10098000859194918FB7F894EC91E22BEC938FBF03
:1009900080E00E94B50083E291E00E94610200E8DD
:1009A00012E060E1262E312CEE24E394F12CE3E0FA
:1009B0008E2E912C58E0C52ED12C40E0A42E40E084
:1009C000B42EC0914502D09146021C161D060CF4AF
:1009D0003FC080E00E94B50091012C1B3D0B209F81
:1009E000C001219F900D309F900D11248230910500
:1009F00008F047C080E592E00E943E01892B09F48F
:100A00001DC180E592E00E941C01823609F041C0C0
:100A100081E0809344029092010180920001D09283
:100A20004602C09245028CE491E00E94610289E690
:100A300091E00E945F0280914502909146020E94DF
:100A4000550384E191E00E94ED0183E891E0C9C083
:100A500081E00E94B500C09FC001C19F900DD09F52
:100A6000900D1124823091053CF0880F991F880F5A
:100A7000991F05970197F1F7C031D1050CF0BACF56
:100A8000A8CF880F991F880F991F05970197F1F735
:100A9000B1CF8E3609F0A7C080914402882309F4B3
:100AA000A2C0E0EBF0E08491ECE9F0E0D491E8E85A
:100AB000F0E0C491CC2309F4A1C081110E948C0004
:100AC000EC2FF0E0EE0FFF1FEE58FF4FA591B49111
:100AD0008C91D82391E080E009F490E0C92FD82FC1
:100AE0008FE392E00E945F028091000190910101EA
:100AF0000E946F0284EA91E0CD2BB1F4970100903F
:100B0000000102C0220F331F0A94E2F720953095AE
:100B1000809145029091460282239323909346024E
:100B2000809345028FE991E00E945F026091450247
:100B300070914602072E000C880B990B0E946C07DF
:100B400020E030E040EA5EE30E9421082B013C01F6
:100B500089EA91E00E945F028091450290914602ED
:100B60000E94550382EB91E00E945F0242E0C301C4
:100B7000B2010E94790281EC91E00E9461028091B1
:100B80000001909101010197909301018093000170
:100B900097FF37C01092440284EC91E00E946102FA
:100BA0008EED91E00E9461028DE791E00E945F026C
:100BB00080914502909146020E9455038BEE91E090
:100BC0000E945F0242E0C301B2010E94790281ECFF
:100BD00091E00E94610285EF91E00E94610280E154
:100BE00092E00E94610280E592E00E943E01892B22
:100BF00029F180E592E00E941C01F5CFD0E0C0E031
:100C00006FCF970102C0220F331F8A95E2F78091C0
:100C1000450290914602822B932B9093460280933B
:100C2000450284E392E00E945F028091000190916E
:100C300001010E946F0289E791E0FBCEA114B1048B
:100C400009F4BFCE0E944A01882309F4B6CE0E945F
:100C50000000B0CEE0E5F2E01382128288EE93E06D
:100C6000A0E0B0E084839583A683B78386E091E01B
:100C70009183808385EC90E09587848784EC90E075
:100C80009787868780EC90E0918B808B81EC90E059
:100C9000938B828B82EC90E0958B848B86EC90E03A
:100CA000978B868B118E128E138E148E089550584A
:100CB000BB27AA270E946F060C94E2070E94D40764
:100CC00038F00E94DB0720F039F49F3F19F426F436
:100CD0000C94D1070EF4E095E7FB0C94CB07E92FB9
:100CE0000E94F30758F3BA17620773078407950742
:100CF00020F079F4A6F50C9415080EF4E0950B2E6F
:100D0000BA2FA02D0B01B90190010C01CA01A0015D
:100D10001124FF27591B99F0593F50F4503E68F1B8
:100D20001A16F040A22F232F342F4427585FF3CFF9
:100D3000469537952795A795F0405395C9F77EF4CA
:100D40001F16BA0B620B730B840BBAF09150A1F013
:100D5000FF0FBB1F661F771F881FC2F70EC0BA0F99
:100D6000621F731F841F48F4879577956795B79521
:100D7000F7959E3F08F0B0CF9395880F08F099271C
:100D8000EE0F9795879508950E94A70708F481E0D4
:100D900008950E94DD060C94E2070E94DB0758F0DC
:100DA0000E94D40740F029F45F3F29F00C94CB0750
:100DB00051110C9416080C94D1070E94F30768F3A4
:100DC0009923B1F3552391F3951B550BBB27AA2704
:100DD00062177307840738F09F5F5F4F220F331F3E
:100DE000441FAA1FA9F335D00E2E3AF0E0E832D006
:100DF00091505040E695001CCAF72BD0FE2F29D009
:100E0000660F771F881FBB1F261737074807AB07DA
:100E1000B0E809F0BB0B802DBF01FF2793585F4F4F
:100E20003AF09E3F510578F00C94CB070C941608CD
:100E30005F3FE4F3983ED4F3869577956795B79531
:100E4000F7959F5FC9F7880F911D9695879597F93C
:100E50000895E1E0660F771F881FBB1F62177307B5
:100E60008407BA0720F0621B730B840BBA0BEE1FCA
:100E700088F7E09508950E94FB0788F09F5798F047
:100E8000B92F9927B751B0F0E1F0660F771F881F8F
:100E9000991F1AF0BA95C9F714C0B13091F00E94A9
:100EA0001508B1E008950C941508672F782F88274E
:100EB000B85F39F0B93FCCF3869577956795B395D0
:100EC000D9F73EF490958095709561957F4F8F4F3F
:100ED0009F4F0895E89409C097FB3EF49095809544
:100EE000709561957F4F8F4F9F4F9923A9F0F92FF0
:100EF00096E9BB279395F695879577956795B7956E
:100F0000F111F8CFFAF4BB0F11F460FF1BC06F5F53
:100F10007F4F8F4F9F4F16C0882311F096E911C065
:100F2000772321F09EE8872F762F05C0662371F086
:100F300096E8862F70E060E02AF09A95660F771F9A
:100F4000881FDAF7880F9695879597F90895990F76
:100F50000008550FAA0BE0E8FEEF16161706E80783
:100F6000F907C0F012161306E407F50798F0621BA4
:100F7000730B840B950B39F40A2661F0232B242B79
:100F8000252B21F408950A2609F4A140A6958FEF98
:100F9000811D811D089597F99F6780E870E060E0EA
:100FA00008959FEF80EC089500240A941616170602
:100FB00018060906089500240A941216130614064A
:100FC00005060895092E0394000C11F4882352F0AD
:100FD000BB0F40F4BF2B11F460FF04C06F5F7F4F65
:100FE0008F4F9F4F089557FD9058440F551F59F04C
:100FF0005F3F71F04795880F97FB991F61F09F3F06
:1010000079F087950895121613061406551FF2CF2E
:101010004695F1DF08C0161617061806991FF1CF7E
:1010200086957105610508940895E894BB276627A5
:101030007727CB0197F908950E94A70708F48FEF4F
:1010400008950E9434080C94E2070E94D40738F0F7
:101050000E94DB0720F0952311F00C94CB070C9431
:10106000D10711240C9416080E94F30770F3959F82
:10107000C1F3950F50E0551F629FF001729FBB278F
:10108000F00DB11D639FAA27F00DB11DAA1F649F2B
:101090006627B00DA11D661F829F2227B00DA11DDE
:1010A000621F739FB00DA11D621F839FA00D611D64
:1010B000221F749F3327A00D611D231F849F600D85
:1010C000211D822F762F6A2F11249F5750409AF0AE
:1010D000F1F088234AF0EE0FFF1FBB1F661F771F3A
:1010E000881F91505040A9F79E3F510580F00C9405
:1010F000CB070C9416085F3FE4F3983ED4F3869533
:1011000077956795B795F795E7959F5FC1F7FE2BA4
:10111000880F911D9695879597F908950E94A707C6
:10112000880B990B0895A1E21A2EAA1BBB1BFD0187
:101130000DC0AA1FBB1FEE1FFF1FA217B307E407B6
:10114000F50720F0A21BB30BE40BF50B661F771F0E
:10115000881F991F1A9469F76095709580959095EE
:101160009B01AC01BD01CF010895EE0FFF1F05905B
:0A117000F491E02D0994F894FFCFEC
:10117A000300000000008001E0000D01CD013E01E6
:10118A001C0130010D0A006E616E00696E66006F07
:10119A0076660053797374656D20526561647920AF
:1011AA0028342D426974292E2053656E64202762E3
:1011BA002720746F2073746172742E000A2D2D2DEE
:1011CA00205354415254494E4720434F4E5645529C
:1011DA0053494F4E202D2D2D002D3E2054657374FA
:1011EA00696E67204269742033202D3E205265675C
:1011FA003A20002020205B53656E6420276E27204A
:10120A00666F72206E65787420737465705D002055
:10121A003A203000203A203100207C205265673A7B
:10122A002000207C204573742E20566F6C743A205F
:10123A00002056002D2D2D2D2D2D2D2D2D2D2D2D12
:10124A002D2D2D2D2D2D2D2D2D2D2D2D2D004649BC
:10125A004E414C20524553554C5400207C20566F29
:10126A006C743A20002D2D2D2D2D2D2D2D2D2D2D4B
:10127A002D2D2D2D2D2D2D2D2D2D2D2D2D2D0A00E4
:10128A0053656E642027622720746F20737461721D
:10129A00742061206E657720636F6E76657273695C
:1012AA006F6E2E002D3E2054657374696E6720425E
:0412BA006974200033
:00000001FF
